S00B000050574D2E7372656325
S11300000C9434000C943E000C943E000C943E007E
S11300100C943E000C943E000C943E000C943E0064
S11300200C943E000C943E000C943E000C943E0054
S11300300C943E000C943E000C943E000C943E0044
S11300400C943E000C943E000C943E000C943E0034
S11300500C943E000C943E000C943E000C943E0024
S11300600C943E000C943E0011241FBECFEFD8E048
S1130070DEBFCDBF0E9443000C9486000C940000A8
S1130080219A229A08950E9440000E944800FFCFBE
S1130090E0E8F0E080818E7F8083808182608083CD
S11300A0A1E8B0E08C91877F8C938C9180618C93D4
S11300B08C9181608C938C918D7F8C938C918B7FB0
S11300C08C938FB7F89424E630E030938700209324
S11300D086008FBF80818064808380818068808374
S11300E080818F7E80838081806280838FB7F89443
S11300F02DE230E0309389002093880027E330E03C
S113010030938B0020938A008FBF0895F894FFCF1B
S9030000FC
